:1080000000F002F800F02EF80AA090E8000C82447C
:108010008344AAF10107DA4501D100F023F8AFF259
:10802000090EBAE80F0013F0010F18BFFB1A43F056
:10803000010318478005000090050000002300247C
:1080400000250026103A28BF78C1FBD8520728BF68
:1080500030C148BF0B6070471FB500F0A5FA1FBDC7
:1080600010B510BD00F031F81146FFF7F5FF00F034
:1080700057FA00F04FF803B4FFF7F2FF03BC00F02B
:1080800057F800000948804709480047FEE7FEE727
:10809000FEE7FEE7FEE7FEE7FEE7FEE7FEE7FEE7B8
:1080A00004480549054A064B70470000418100001D
:1080B0000180000028860000288E0000288A000029
:1080C000288A0000704770477047754600F02CF80A
:1080D000AE4605006946534620F00700854618B0B5
:1080E00020B5FFF7DDFFBDE820404FF000064FF060
:1080F00000074FF000084FF0000BAC46ACE8C00999
:10810000ACE8C009ACE8C009ACE8C00921F007013F
:108110008D46704710B50446AFF300802046BDE899
:108120001040FFF7A8BF000000487047C885000056
:1081300001491820ABBEFEE7260002007047000090
:108140008448416941F00101416183490A6842F074
:1081500070120A6081498A6902F00602062A1CBF71
:108160008A6912F4005F4BD07D4A0A607D4B0B6038
:108170004A604B60CA6842F02002CA60CA6842F096
:108180004002CA608A6812F0010FFBD1CA6822F06F
:108190002002CA60CA6842F01002CA608B69724A43
:1081A00013F0060F06D08B6903F00603022B03D1F0
:1081B000BB2300E0A5231380D1F818C0DF2303EA16
:1081C0001C2353808B69C3F3074393808B691B0E79
:1081D000D380CB69DBB21381CB69C3F3072353810F
:1081E0008A6812F0010FFBD1CA6822F01002CA603F
:1081F000CA6822F40072CA60CA6842F08002CA608B
:1082000050F8041C41F0010140F8041C50F8041C13
:1082100011F0020FFAD081B0016841F080010160D5
:10822000002101E000990131009100994F29F9D90D
:10823000016841F090010160002101E000990131E5
:10824000009100994F29F9D9016840F2031321F0F8
:108250000301016050F8041C444A114040F8041C1A
:108260000168434A114001600168424A11400160BF
:10827000016821F440010160C16A3F4A1140C162B6
:10828000826A3E490A408262C26A9A43C262C26AF4
:1082900022F48032C262C26A22F00042C262026BE1
:1082A00022F001020263D0F8BC2022F48032C0F830
:1082B000BC2000224260C0F8C82050F8042C42F4D0
:1082C000803240F8042C4FF6FE7201B050F8043CA6
:1082D0001AB1013A13F40033F8D050F8042C12F418
:1082E000003F31D002680260026842F4005202602E
:1082F000026842F4806202600268214B1A40026008
:10830000826A1140816201681E4A11430160816ADC
:1083100041F001018162816A816250F8041C41F0E0
:10832000807140F8041C50F8041C11F0007FFAD052
:10833000016821F003010160016841F00201016060
:10834000016811F0080FFBD04FF00060002100F031
:10835000F3B800BF041002401C000140042002409A
:1083600023016745AB89EFCD00F8FF1FFFFFF2FE49
:108370000C00FF08FFFFC277BFFFFFBFF0FFFF3F0A
:10838000FFFFC0F7000029082DE9F041D0F820E0F8
:10839000D0F824C0002301244FF00F0800260DE080
:1083A00004FA06F7013617421FBF01FA03F708FA6D
:1083B00003F52EEA050545EA070E0433082EEFD132
:1083C0000823002401254FF00F080DE005FA03F7FC
:1083D000013317421FBF01FA04F708FA04F62CEA2A
:1083E000060646EA070C0434102BEFD1C0F820E053
:1083F000C0F824C0BDE8F0818161704710B540F23B
:10840000125000F0A5F84B4C00214FF420422046BA
:10841000FFF7BAFF2046022100224FF4204300F06C
:1084200017F82046002103224FF4204300F039F8CA
:1084300020460121012241F2844300F009F8204640
:108440000021032241F28443BDE8104000F029B826
:108450002DE9F047D0F800C0D0F80CE000244FF030
:1084600001094FF00308002713E009FA07F61E423E
:108470000DD008FA04F502FA04FA2EEA05062CEAF1
:10848000050546EA0A0E01FA04F645EA060C02342E
:108490000137102FE9D1C0F800C0C0F80CE0BDE8EA
:1084A000F0870129416814BF99431943F0B5416031
:1084B00084464FF6FF775CF8081FBA4216D150F891
:1084C0003CEF00220124032500260AE004FA06F707
:1084D00001361F421EBF4EEA070E05FA02F7394366
:1084E0000232102EF2D1CCF8001015E00020012647
:1084F0004FF0030E00240BE006FA04F701341F428C
:108500001FBF02FA00F70EFA00F5A9433943023003
:10851000102CF1D160468E46C0F800E0F0BD00009E
:1085200080B500F025F8FFF769FF02488021FFF7CA
:1085300063FFFEE700040048034A11400843034973
:108540000860BFF34F8F704780FFFF1F08ED00E00A
:10855000064A810900F01F00012303FA00F051F8D8
:1085600002C040EA0C008850704700BF0010024073
:108570000A484FF47A710068B0FBF1F00138B0F1AD
:10858000807F00D3FEE70649F022072348600548B4
:10859000027000228A600B6002707047C485000080
:1085A00010E000E023ED00E04FF04070E1EE100A33
:1085B00070470000C8850000C88500006008000002
:0485C0003C800000FB
:0485C40000F36F064B
:040000030000800178
:00000001FF
